:100B20002000310032003300340035003600370039
:100B3000380039003000BAE3CEC2BFD8D6C6B0E51F
:100B400000B5B1C7B0CEC2B6C83A00C9CFCFDECE6D
:100B5000C2B6C83A00CFC2CFDECEC2B6C83A00A1F4
:100B6000E60000000000C8203610103620C8000043
:100B7000000000000000030C785050780C030000C7
:100B8000000000000000C8203610909670E01008A9
:100B9000000000000020130C7A5351780C03000071
:100BA000000000000080C0E0F0F878F8F0E0C080BD
:100BB0000000000E0F0F0703010000000103070FE4
:100BC0000F0E003878F8F0E0C0800080C0E0F0F848
:100BD0007830000000000103070F0F0F070301002A
:100BE0000000000000000000000000000000E0E045
:100BF00000000010383E373230303030303C1F0FAC
:020C00000000F2
:0F107200011D1A011C17011A00011B00011900B2
:0B118300EF1FAC0670011E4C70F6223E
:10103600D3EF9400EE940040147D6E7C00ED1D709D
:0D104600011CED4C70F7EF1F70E61E80E3FB
:01105300227A
:10108F00D2A57F047E00121183C2A57FE07E0112DC
:0B109F001183D2A57FE07E01021183C7
:100FA000E4FB7D08C2A57F047E00121183EBC3130E
:100FB000FBD2A57F0A7E0012118330A50343038074
:0B0FC0007F2D7E00121183DDDBAF03EC
:010FCB002203
:02101500AD0725
:101017007B08C2A57F0F7E00121183ED1392A57F77
:0E1027003C7E00121183D2A5EDC313FDDBE465
:011035002298
:100EFB0012108F7FCC1210157F441210157F7D7E40
:100F0B000012118312108F7FCC1210157FBE12109E
:100F1B0015120FA0AA07120FA0EAC4540FFEEFC4BC
:060F2B0054F02EFF7E00D1
:010F3100229D
:1007AE008F088D098B0AE50A75F00A84B40A005089
:1007BE007C9007C6F82828730207E40207EC0207AC
:1007CE00F40207FC02080402080C02081402081CBA
:1007DE0002082402082C7BFF7A0B792080467BFFCF
:1007EE007A0B7922803E7BFF7A0B792480367BFF51
:1007FE007A0B7926802E7BFF7A0B792880267BFF59
:10080E007A0B792A801E7BFF7A0B792C80167BFF60
:10081E007A0B792E800E7BFF7A0B793080067BFF68
:10082E007A0B7932C203AD09AF08120F32E50A75A1
:10083E00F00A84E5F0B40A0040030208F79008526B
:10084E00F828287302087002087D02088A020897A9
:10085E000208A40208B10208BE0208CB0208D802A0
:10086E0008E5E5082408FF7BFF7A0B79348073E5F1
:10087E00082408FF7BFF7A0B79228066E50824089E
:10088E00FF7BFF7A0B79248059E5082408FF7BFF54
:10089E007A0B7926804CE5082408FF7BFF7A0B79CA
:1008AE0028803FE5082408FF7BFF7A0B792A8032E7
:1008BE00E5082408FF7BFF7A0B792C8025E50824B8
:1008CE0008FF7BFF7A0B792E8018E5082408FF7B42
:1008DE00FF7A0B7930800BE5082408FF7BFF7A0B3B
:0A08EE007932C203AD09120F322265
:1008F8007BFF7A0B7936C203E4FD7F18120A267B48
:10090800FF7A0B7941C2037D02E4FF120A26E51B38
:10091800146011146027240270417BFF7A0B794B15
:10092800C20380087BFF7A0B794BD2037D04E4FF76
:10093800120A267BFF7A0B7955C20380177BFF7A50
:100948000B794BC2037D04E4FF120A267BFF7A0B66
:100958007955D2037D06E4FF120A267BFF7A0B79CC
:100968005FC2037D027F58120A267BFF7A0B795FEC
:10097800C2037D047F58120A267BFF7A0B795FC277
:10098800037D067F58120A26E5197014C291751561
:10099800027516FF75170B751862C2057B10801358
:1009A800D2917515027516FF75170B751882C20559
:1009B8007B10E4FD7F70120D1A7515047516FF750E
:1009C800170B7518A2C2057B107D027F70120D1AD5
:1009D8007515067516FF75170B7518C2C2057B10BD
:1009E8007D047F70120D1A7515087516FF75170BA3
:1009F8007518E2C2057B107D067F70120D1A120E63
:100A0800FB8F1AAB1A7D027F481207AEAB1D7D041F
:0E0A18007F481207AEAB1C7D067F480207AE7A
:100DF60020920F3092FDE51970047F0180027F007A
:100E06008F192093113093FDE51BB40102051DE5F2
:100E16001BB40202051C2094113094FDE51BB4019D
:100E260002151DE51BB40202151C20950F3095FD19
:0D0E3600051BE51BC394034003E4F51B22DC
:100FCC00E51AD3940A401AE51A94235014E51AC36F
:100FDC00951C5004C2B6C290E51AD3951D400680EC
:060FEC0000D2B6D29022F3
:1010AA00120C02C2911208F8120DF6120FCC7F64CC
:0710BA007E0012105480EECD
:10105400EF1FAA0670011E4A60137D01EDD39400B0
:0D10640040EE7CDE7B0CDBFEDCFA1D80EF35
:01107100225C
:10112600EF1FAC0670011E4C60087D01DDFE00005D
:0211360080EE49
:011138002294
:1000030000000000000000000000000000000000ED
:10001300000000F800000000000000333000000082
:1000230000100C06100C0600000000000000000089
:1000330040C07840C0784000043F04043F040400FB
:10004300007088FC08300000001820FF211E00000B
:10005300F008F000E018000000211C031E211E0020
:1000630000F00888700000001E21232419272110A6
:1000730010160E0000000000000000000000000049
:10008300000000E0180402000000000718204000F0
:1000930000020418E00000000040201807000000E0
:1000A300404080F0804040000202010F0102020044
:1000B300000000F0000000000101011F0101010028
:1000C300000000000000000080B07000000000008D
:1000D3000000000000000000000101010101010116
:1000E30000000000000000000030300000000000AD
:1000F3000000000080601804006018060100000082
:1001030000E010080810E000000F102020100F007E
:10011300001010F8000000000020203F2020000005
:10012300007008080888700000302824222130005D
:1001330000300888884830000018202020110E0065
:100143000000C02010F8000000070424243F24000E
:1001530000F80888880808000019212020110E00E3
:1001630000E0108888180000000F112020110E00F5
:1001730000380808C83808000000003F00000000ED
:100183000070880808887000001C222121221C00AE
:1001930000E010080810E0000000312222110F00D7
:1001A300000000C0C000000000000030300000006C
:1001B30000000080000000000000806000000000DC
:1001C30000008040201008000001020408102000F5
:1001D3004040404040404000040404040404040040
:1001E30000081020408000000020100804020100D5
:1001F300007048080808F0000000003036010000D5
:10020300C030C828E810E0000718272423140B0087
:100213000000C038E0000000203C23020227382001
:1002230008F8888888700000203F202020110E00E5
:10023300C0300808080838000718202020100800DC
:1002430008F808080810E000203F202020100F00C5
:1002530008F88888E8081000203F20202320180091
:1002630008F88888E8081000203F200003000000F9
:10027300C03008080838000007182020221E02009A
:1002830008F808000008F808203F210101213F2059
:10029300000808F8080800000020203F2020000084
:1002A30000000808F8080800C08080807F00000074
:1002B30008F888C028180800203F200126382000AD
:1002C30008F8080000000000203F20202020300014
:1002D30008F8F800F8F80800203F003F003F20002E
:1002E30008F830C00008F808203F200007183F0036
:1002F300E01008080810E0000F10202020100F0065
:1003030008F808080808F000203F21010101000057
:10031300E01008080810E0000F18242438504F009C
:1003230008F8888888887000203F2000030C30205C
:1003330000708808080838000038202121221C009A
:10034300180808F8080818000000203F20000000E3
:1003530008F808000008F808001F202020201F00CC
:100363000878880000C83808000007380E0100002C
:10037300F80800F80008F800033C0700073C0300F6
:10038300081868808068180820302C03032C30205C
:100393000838C800C83808000000203F20000000CB
:1003A30010080808C8380800203826212020180023
:1003B300000000FE020202000000007F40404000F7
:1003C300000C30C000000000000000010638C0002F
:1003D30000020202FE000000004040407F000000D7
:1003E30000000402020204000000000000000000FC
:1003F30000000000000000008080808080808080FA
:1004030000020204000000000000000000000000E1
:1004130000008080808000000019242222223F20D7
:1004230008F8008080000000003F112020110E001A
:100433000000008080800000000E112020201100A9
:10044300000000808088F800000E112020103F205B
:100453000000808080800000001F222222221300DF
:10046300008080F0888888180020203F202000002A
:100473000000808080808000006B949494936000DF
:1004830008F8008080800000203F210000203F20EA
:1004930000809898000000000020203F20200000EA
:1004A300000000809898000000C08080807F0000DA
:1004B30008F8000080808000203F24022D302000B7
:1004C300000808F8000000000020203F2020000062
:1004D3008080808080808000203F20003F20003F7C
:1004E3008080008080800000203F210000203F208A
:1004F3000000808080800000001F202020201F003B
:10050300808000808000000080FFA12020110E0069
:100513000000008080808000000E112020A0FF805A
:10052300808080008080800020203F212000010007
:10053300000080808080800000332424242419005C
:10054300008080E0808000000000001F2020000069
:100553008080000000808000001F202020103F20AA
:10056300808080000080808000010E30080601003A
:1005730080800080008080800F300C030C300F00DF
:1005830000808000808080000020312E0E3120000A
:10059300808080000080808080818E70180601003A
:1005A30000808080808080000021302C2221300058
:1005B30000000000807C020200000000003F404079
:1005C30000000000FF00000000000000FF0000002A
:1005D3000002027C800000000040403F0000000059
:1005E30000060101020204040000000000000000F4
:1005F30000BAE300E000FF102002F292929292927E
:10060300F20200010000FF0000404F444444444410
:100613004F4000CEC21060028C0000FE9292929274
:1006230092FE00000004047E01407E42427E427E30
:1006330042427E4000BFD8101010FF9020984828F7
:10064300090E2848A818000242817F004040424218
:10065300427E4242424000D6C640504E4848FF4880
:10066300484840F80000FF000000003E0202FF126D
:10067300221E000F40807F0000B0E51010D0FF90D5
:100683001000FC24E4242223E20000040300FF0002
:1006930083601F8041261826418000B5B100404287
:1006A300445840407F40405048C60000000040444A
:1006B300444444444444444444FF000000C7B00855
:1006C30008E8292E28E80808C80C0BE808080000E9
:1006D30000FF0949897F00000F40807F000000CEA2
:1006E300C21060028C0000FE9292929292FE000071
:1006F3000004047E01407E42427E427E42427E40AE
:1007030000B6C80000FC242424FC252624FC242451
:1007130024040040308F80844C55252525554C807A
:10072300808000C9CF000000000000FF404040402F
:1007330040400000004040404040407F4040404037
:100743004040404000CFC2020202020202FE020207
:1007530042820202020200000000000000FF0000CB
:1007630000000106000000CFDE00FE225A8600FED4
:100773009292929292FE00000000FF04080700FF8D
:100783004020030C1422414000A1E6060909E6F8C3
:100793000C040202020202041E0000000000071FF4
:0B07A30030204040404040201000008B
:0D108100C101C100C1020127320228000D8B
:10113900E4FEC2A1EF3392A0EF25E0FFD2A10EBEDB
:0211490008F0AC
:01114B002281
:0E114C00C2AFC2A4C2A2121139D2A4D2AF22E5
:0E115A00C2AFC2A4D2A2121139D2A4D2AF22C7
:100FF200AC0730010474042CFCED24B0FF12114C38
:10100200EC540FFF12114CEC54F0C4540F4410FF77
:0310120002114C7C
:040E4300AA05A9074C
:100E4700E9D394835039EB94845034EA9407502FB4
:100E5700E50B94085029EB2914FBE50B2A14F50B35
:100E6700EAD3950B5019AF01AD02120FF2AD01EDA8
:0F0E7700D39B5008AF0C12115A0D80F30A80E183
:010E86002249
:0D117600750B08E4F50C7B84FDFF020E43B1
:05118E007FAF02114CCF
:051193007FAE02114CCB
:1010D600A20392013003047F0180027F00EF44A047
:0410E600FF02114CA8
:1010EA00A20392003003047F0080027F08EF44C00D
:0410FA00FF02114C94
:1010FE00A20392023003047F0180027F00EF44A618
:04110E00FF02114C7F
:1010C100AD07EDD3943F500C8D277F8112114CAFAA
:0510D1000512114C2284
:10111200EFD39483500D7D08120FF2A203E433FF44
:0411220012115A222A
:0D116800E4FBAF03C2031211120BBB83F5B1
:011175002257
:100C0200C2A37F0A7E00121054D2A37F0A7E001272
:100C120010547FE212114C7F647E001210541211A4
:100C2200937FA212114C7F2612114CA20192031241
:100C320010D6A20092031210EAA20292031210FE30
:100C4200AF271210C17FA412114C7FF812114CE48D
:100C5200FF12114C7F2C12114C7F0A7E001210548D
:100C62007F2E12114C7F0A7E001210547F2F121118
:100C72004C7F027E001210547F4012114C121176EA
:0C0C8200121168E4FDFF120FF202118E47
:060D1A008F128D138B14F3
:100D2000E512D39483506AE51494845064E51394D7
:100D300007505EE51594085058E514251214F51473
:100D4000E515251314F515E513D395155043AD138B
:100D5000AF12120FF2AD12EDD395145030300515CD
:100D6000AB160518E518AA177002051714F9120D2D
:100D700092F4FF8012AB160518E518AA1770020549
:100D80001714F9120D92FF12115A0D80CA05138023
:010D9000B6AC
:010D9100223F
:100E87008F108D11E510D39483502EE511940750E0
:100E970028EB947F5023EB75F010A42403F974FE1C
:100EA70035F07516FFF5178918751502A204920516
:0A0EB7007B08AD11AF10120D1A22D6
:100F32008F0B8D0C8B0D8A0E890FAB0DAA0EA90F8C
:100F4200120D926021050FE50F7002050E14F912C1
:100F52000D92FBA2039204AD0CAF0B120E87740824
:070F6200250BF50B80D422E2
:100EC1008F1E8D1FE51ED39483502EE51F9407506E
:100ED10028EB947F5023EB75F005A42453F9740596
:100EE10035F07516FFF5178918751501A2079205DA
:0A0EF1007B05AD1FAF1E120D1A2283
:100F69008F228D238B248A258926AB24AA25A9269D
:100F7900120D9260210526E5267002052514F91245
:100F89000D92FBA2089207AD23AF22120EC174067F
:070F99002522F52280D4227D
:0A0A26008F088D098B0A8A0B890CDA
:100A3000E508D394834003020B1FE50994074003A4
:100A4000020B1FAB0AAA0BA90C120D927003020B2A
:100A50001FC394815003020AF6E4F50DF50ED3E5A9
:100A60000E9529E50D95285079AB0AAA0BA90C1211
:100A70000D92FF9005F475F022E50E120DEAE50DDA
:100A800075F022A42583F583E4936F704A900001EA
:100A9000120DABFF9005F575F022E50E120DEAE59B
:100AA0000D75F022A42583F583E493B50729AE0DD7
:100AB000AF0E7C007D22120DD874F62FF974053E1E
:100AC0007516FFF5178918751502A20392057B109C
:100AD000AD09AF08120D1A050EE50E7081050D0265
:100AE0000A5E74102508F5087402250CF50CE4352F
:100AF0000BF50B020A43AB0AAA0BA90C120D92FBD1
:100B0000A2039204AD09AF08120E877401250CF5FB
:0F0B10000CE4350BF50B74082508F508020A43B1
:010B1F0022B3
:03000000020C8E61
:0C0C8E00787FE4F6D8FD758129020CD5B2
:100D9200BB010689828A83E0225002E722BBFE025F
:090DA200E32289828A83E4932292
:100DAB00BB010CE58229F582E5833AF583E02250FD
:100DBB0006E92582F8E622BBFE06E92582F8E22247
:0D0DCB00E58229F582E5833AF583E4932261
:100DD800EF8DF0A4A8F0CF8CF0A428CE8DF0A42E2F
:020DE800FE22E9
:0C0DEA00A42582F582E5F03583F5832214
:100C9A000210AAE493A3F8E493A34003F68001F2B6
:100CAA0008DFF48029E493A3F85407240CC8C3335B
:100CBA00C4540F4420C8834004F456800146F6DF2A
:100CCA00E4800B0102040810204080901072E47E38
:100CDA00019360BCA3FF543F30E509541FFEE4931F
:100CEA00A360010ECF54C025E060A840B8E493A3E6
:100CFA00FAE493A3F8E493A3C8C582C8CAC583CA11
:100D0A00F0A3C8C582C8CAC583CADFE9DEE780BEC8
:01108E000061
:00000001FF
