:03000000020827CC
:0C082700787FE4F6D8FD75812B02086E86
:100BE200EF1FAA0670011E4A60137D01EDD3940027
:0D0BF20040EE7CDE7B0CDBFEDCFA1D80EFAC
:010BFF0022D3
:100C6500EF1FAC0670011E4C60087D01DDFE000023
:020C750080EE0F
:010C7700225A
:10093F00387831364153434C4CBAE3CEC2A1E63A34
:10094F0000202122232425262728292A2B2C2D2E4F
:10095F002F00303132333435363738393A3B3C3D5E
:10096F003E3F00404142434445464748494A4B4C6D
:10097F004D4E4F00505152535455565758595A5B7C
:10098F005C5D5E5F00606162636465666768696A8B
:10099F006B6C6D6E6F00707172737475767778799A
:0E09AF007A7B7C7D7E005468616E6B73210044
:100798001208B37BFF7A09793FD203E4FDFF120602
:1007A8009E7BFF7A097950C2037D02E4FF12069E00
:1007B8007BFF7A097961C2037D04E4FF12069E7B00
:1007C800FF7A097972C2037D06E4FF12069E7FD084
:1007D8007E07120BE2120CC37BFF7A097983C203EE
:1007E800E4FDFF12069E7BFF7A097994C2037D021D
:1007F800E4FF12069E7BFF7A0979A5C2037D04E413
:10080800FF12069E7FD07E07120BE2120CC37BFFFD
:0F0818007A0979B5C2037D047F2412069E80FE03
:1000030000000000000000000000000000000000ED
:10001300000000F800000000000000333000000082
:1000230000100C06100C0600000000000000000089
:1000330040C07840C0784000043F04043F040400FB
:10004300007088FC08300000001820FF211E00000B
:10005300F008F000E018000000211C031E211E0020
:1000630000F00888700000001E21232419272110A6
:1000730010160E0000000000000000000000000049
:10008300000000E0180402000000000718204000F0
:1000930000020418E00000000040201807000000E0
:1000A300404080F0804040000202010F0102020044
:1000B300000000F0000000000101011F0101010028
:1000C300000000000000000080B07000000000008D
:1000D3000000000000000000000101010101010116
:1000E30000000000000000000030300000000000AD
:1000F3000000000080601804006018060100000082
:1001030000E010080810E000000F102020100F007E
:10011300001010F8000000000020203F2020000005
:10012300007008080888700000302824222130005D
:1001330000300888884830000018202020110E0065
:100143000000C02010F8000000070424243F24000E
:1001530000F80888880808000019212020110E00E3
:1001630000E0108888180000000F112020110E00F5
:1001730000380808C83808000000003F00000000ED
:100183000070880808887000001C222121221C00AE
:1001930000E010080810E0000000312222110F00D7
:1001A300000000C0C000000000000030300000006C
:1001B30000000080000000000000806000000000DC
:1001C30000008040201008000001020408102000F5
:1001D3004040404040404000040404040404040040
:1001E30000081020408000000020100804020100D5
:1001F300007048080808F0000000003036010000D5
:10020300C030C828E810E0000718272423140B0087
:100213000000C038E0000000203C23020227382001
:1002230008F8888888700000203F202020110E00E5
:10023300C0300808080838000718202020100800DC
:1002430008F808080810E000203F202020100F00C5
:1002530008F88888E8081000203F20202320180091
:1002630008F88888E8081000203F200003000000F9
:10027300C03008080838000007182020221E02009A
:1002830008F808000008F808203F210101213F2059
:10029300000808F8080800000020203F2020000084
:1002A30000000808F8080800C08080807F00000074
:1002B30008F888C028180800203F200126382000AD
:1002C30008F8080000000000203F20202020300014
:1002D30008F8F800F8F80800203F003F003F20002E
:1002E30008F830C00008F808203F200007183F0036
:1002F300E01008080810E0000F10202020100F0065
:1003030008F808080808F000203F21010101000057
:10031300E01008080810E0000F18242438504F009C
:1003230008F8888888887000203F2000030C30205C
:1003330000708808080838000038202121221C009A
:10034300180808F8080818000000203F20000000E3
:1003530008F808000008F808001F202020201F00CC
:100363000878880000C83808000007380E0100002C
:10037300F80800F80008F800033C0700073C0300F6
:10038300081868808068180820302C03032C30205C
:100393000838C800C83808000000203F20000000CB
:1003A30010080808C8380800203826212020180023
:1003B300000000FE020202000000007F40404000F7
:1003C300000C30C000000000000000010638C0002F
:1003D30000020202FE000000004040407F000000D7
:1003E30000000402020204000000000000000000FC
:1003F30000000000000000008080808080808080FA
:1004030000020204000000000000000000000000E1
:1004130000008080808000000019242222223F20D7
:1004230008F8008080000000003F112020110E001A
:100433000000008080800000000E112020201100A9
:10044300000000808088F800000E112020103F205B
:100453000000808080800000001F222222221300DF
:10046300008080F0888888180020203F202000002A
:100473000000808080808000006B949494936000DF
:1004830008F8008080800000203F210000203F20EA
:1004930000809898000000000020203F20200000EA
:1004A300000000809898000000C08080807F0000DA
:1004B30008F8000080808000203F24022D302000B7
:1004C300000808F8000000000020203F2020000062
:1004D3008080808080808000203F20003F20003F7C
:1004E3008080008080800000203F210000203F208A
:1004F3000000808080800000001F202020201F003B
:10050300808000808000000080FFA12020110E0069
:100513000000008080808000000E112020A0FF805A
:10052300808080008080800020203F212000010007
:10053300000080808080800000332424242419005C
:10054300008080E0808000000000001F2020000069
:100553008080000000808000001F202020103F20AA
:10056300808080000080808000010E30080601003A
:1005730080800080008080800F300C030C300F00DF
:1005830000808000808080000020312E0E3120000A
:10059300808080000080808080818E70180601003A
:1005A30000808080808080000021302C2221300058
:1005B30000000000807C020200000000003F404079
:1005C30000000000FF00000000000000FF0000002A
:1005D3000002027C800000000040403F0000000059
:1005E30000060101020204040000000000000000F4
:1005F30000B2E210226C0080FC04F404FE04F80054
:10060300FE00000404FE014027100F10670047801E
:100613007F0000CAD44042CC00109090909090FF8D
:10062300101214100000007F201020603F101001F2
:100633003E40807000BAE300E000FF102002F29217
:1006430092929292F20200010000FF0000404F4498
:10065300444444444F4000CEC21060028C0000FE6C
:100663009292929292FE00000004047E01407E4228
:10067300427E427E42427E4000A1E6060909E6F838
:100683000C040202020202041E0000000000071F05
:0B06930030204040404040201000009C
:0D0CB500C101C100C1020127320228000563
:100C7800E4FEC2A1EF3392A0EF25E0FFD2A10EBEA1
:020C880008F072
:010C8A002247
:0E0C8B00C2AFC2A4C2A2120C78D2A4D2AF2271
:0E0C9900C2AFC2A4D2A2120C78D2A4D2AF2253
:100BBF00AC0730010474042CFCED24B0FF120C8B35
:100BCF00EC540FFF120C8BEC54F0C4540F4410FF75
:030BDF00020C8B7A
:040A9900AA05A907FA
:100A9D00E9D394835039EB94845034EA9407502F62
:100AAD00E50D94085029EB2914FBE50D2A14F50DDD
:100ABD00EAD3950D5019AF01AD02120BBFAD01ED8B
:0F0ACD00D39B5008AF0E120C990D80F30A80E1F5
:010ADC0022F7
:0D0CC300750D08E4F50E7B84FDFF020A9913
:050CD0007FAF020C8B58
:050CD5007FAE020C8B54
:100C1500A20392013003047F0180027F00EF44A00C
:040C2500FF020C8B33
:100C2900A20392003003047F0080027F08EF44C0D2
:040C3900FF020C8B1F
:100C3D00A20392023003047F0180027F00EF44A6DD
:040C4D00FF020C8B0B
:100C0000AD07EDD3943F500C8D277F81120C8BAF35
:050C100005120C8B220F
:100C5100EFD39483500D7D08120BBFA203E433FF41
:040C6100120C9922B6
:0D0CA700E4FBAF03C203120C510BBB83F53D
:010CB400221D
:1008B300C2A37F0A7E00120BE2D2A37F0A7E00123C
:1008C3000BE27FE2120C8B7F647E00120BE2120CB0
:1008D300D57FA2120C8B7F26120C8BA201920312DE
:1008E3000C15A2009203120C29A2029203120C3DD2
:1008F300AF27120C007FA4120C8B7FF8120C8BE431
:10090300FF120C8B7F2C120C8B7F0A7E00120BE2E2
:100913007F2E120C8B7F0A7E00120BE27F2F120CAC
:100923008B7F027E00120BE27F40120C8B120CC3F2
:0C093300120CA7E4FDFF120BBF020CD059
:0609BD008F138D148B1551
:1009C300E513D39483506AE51594845064E5149435
:1009D30007505EE51694085058E515251314F515D0
:1009E300E516251414F516E514D395165043AD14E6
:1009F300AF13120BBFAD13EDD39515503030051562
:100A0300AB170519E519AA187002051814F9120A8B
:100A130035F4FF8012AB170519E519AA1870020502
:100A23001814F9120A35FF120C990D80CA051480A7
:010A3300B60C
:010A3400229F
:100ADD008F118D12E511D39483502EE5129407508A
:100AED0028EB947F5023EB75F010A42403F974FECA
:100AFD0035F07517FFF5188919751602A2049205C0
:0A0B0D007B08AD12AF111209BD22E2
:100B51008F1A8D1B8B1C8A1D891EAB1CAA1DA91EF9
:100B6100120A356021051EE51E7002051D14F912D9
:100B71000A35FBA2069204AD1BAF1A120ADD7408F6
:070B8100251AF51A80D422A9
:100B17008F2A8D2BE52AD39483502EE52B940750EB
:100B270028EB947F5023EB75F005A42453F9740543
:100B370035F07517FFF5188919751601A207920583
:0A0B47007B05AD2BAF2A1209BD2279
:100B88008F228D238B248A258926AB24AA25A92682
:100B9800120A3560210526E5267002052514F9128A
:100BA8000A35FBA2089207AD23AF22120B17740671
:070BB8002522F52280D42262
:0A069E008F0A8D0B8B0C8A0D890E5C
:1006A800E50AD394834003020797E50B94074003B8
:1006B800020797AB0CAA0DA90E120A3570030207A0
:1006C80097C39481500302076EE4F50FF510D3E544
:1006D800109529E50F95285079AB0CAA0DA90E1293
:1006E8000A35FF9005F475F022E510120A8DE50F22
:1006F80075F022A42583F583E4936F704A90000176
:10070800120A4EFF9005F575F022E510120A8DE5E4
:100718000F75F022A42583F583E493B50729AE0F5E
:10072800AF107C007D22120A7B74F62FF974053E07
:100738007517FFF5188919751602A20392057B1023
:10074800AD0BAF0A1209BD0510E5107081050F0247
:1007580006D67410250AF50A7402250EF50EE4353E
:100768000DF50D0206BBAB0CAA0DA90E120A35FB3E
:10077800A2039204AD0BAF0A120ADD7401250EF52F
:0F0788000EE4350DF50D7408250AF50A0206BBBF
:01079700223F
:10083300020798E493A3F8E493A34003F68001F23C
:1008430008DFF48029E493A3F85407240CC8C333C6
:10085300C4540F4420C8834004F456800146F6DF95
:10086300E4800B0102040810204080900CB5E47E64
:10087300019360BCA3FF543F30E509541FFEE4938A
:10088300A360010ECF54C025E060A840B8E493A351
:10089300FAE493A3F8E493A3C8C582C8CAC583CA7C
:1008A300F0A3C8C582C8CAC583CADFE9DEE780BE34
:010CC2000031
:100A3500BB010689828A83E0225002E722BBFE02BF
:090A4500E32289828A83E49322F2
:100A4E00BB010CE58229F582E5833AF583E022505D
:100A5E0006E92582F8E622BBFE06E92582F8E222A7
:0D0A6E00E58229F582E5833AF583E49322C1
:100A7B00EF8DF0A4A8F0CF8CF0A428CE8DF0A42E8F
:020A8B00FE2249
:0C0A8D00A42582F582E5F03583F5832274
:00000001FF
